{
  "contractName": "VendingMachine",
  "abi": [
    {
      "inputs": [],
      "stateMutability": "nonpayable",
      "type": "constructor"
    },
    {
      "anonymous": false,
      "inputs": [
        {
          "indexed": false,
          "internalType": "uint256",
          "name": "amount",
          "type": "uint256"
        }
      ],
      "name": "NewWithdrawl",
      "type": "event"
    },
    {
      "inputs": [
        {
          "internalType": "address",
          "name": "",
          "type": "address"
        }
      ],
      "name": "donutBalances",
      "outputs": [
        {
          "internalType": "uint256",
          "name": "",
          "type": "uint256"
        }
      ],
      "stateMutability": "view",
      "type": "function",
      "constant": true
    },
    {
      "inputs": [],
      "name": "owner",
      "outputs": [
        {
          "internalType": "address",
          "name": "",
          "type": "address"
        }
      ],
      "stateMutability": "view",
      "type": "function",
      "constant": true
    },
    {
      "inputs": [],
      "name": "getVendingMachineStock",
      "outputs": [
        {
          "internalType": "uint256",
          "name": "",
          "type": "uint256"
        }
      ],
      "stateMutability": "view",
      "type": "function",
      "constant": true
    },
    {
      "inputs": [],
      "name": "getVendingMachineValance",
      "outputs": [
        {
          "internalType": "uint256",
          "name": "",
          "type": "uint256"
        }
      ],
      "stateMutability": "view",
      "type": "function",
      "constant": true
    },
    {
      "inputs": [
        {
          "internalType": "uint256",
          "name": "amount",
          "type": "uint256"
        }
      ],
      "name": "restock",
      "outputs": [],
      "stateMutability": "nonpayable",
      "type": "function"
    },
    {
      "inputs": [
        {
          "internalType": "uint256",
          "name": "amount",
          "type": "uint256"
        }
      ],
      "name": "purchase",
      "outputs": [],
      "stateMutability": "payable",
      "type": "function",
      "payable": true
    },
    {
      "inputs": [],
      "name": "withdrawAll",
      "outputs": [],
      "stateMutability": "nonpayable",
      "type": "function"
    }
  ],
  "bytecode": "0x608060405234801561001057600080fd5b50336000806101000a81548173ffffffffffffffffffffffffffffffffffffffff021916908373ffffffffffffffffffffffffffffffffffffffff1602179055506064600160003073ffffffffffffffffffffffffffffffffffffffff1673ffffffffffffffffffffffffffffffffffffffff16815260200190815260200160002081905550610cb0806100a56000396000f3fe6080604052600436106100705760003560e01c80638da5cb5b1161004e5780638da5cb5b146100e25780639a020d8a1461010d578063c21a702a1461014a578063efef39a11461017357610070565b80634abdd2951461007557806354f1c4cf146100a0578063853828b6146100cb575b600080fd5b34801561008157600080fd5b5061008a61018f565b604051610097919061070e565b60405180910390f35b3480156100ac57600080fd5b506100b5610226565b6040516100c2919061070e565b60405180910390f35b3480156100d757600080fd5b506100e061026d565b005b3480156100ee57600080fd5b506100f761044b565b604051610104919061076a565b60405180910390f35b34801561011957600080fd5b50610134600480360381019061012f91906107b6565b61046f565b604051610141919061070e565b60405180910390f35b34801561015657600080fd5b50610171600480360381019061016c919061080f565b610487565b005b61018d6004803603810190610188919061080f565b61056e565b005b60008060009054906101000a900473ffffffffffffffffffffffffffffffffffffffff1673ffffffffffffffffffffffffffffffffffffffff163373ffffffffffffffffffffffffffffffffffffffff1614610220576040517f08c379a000000000000000000000000000000000000000000000000000000000815260040161021790610899565b60405180910390fd5b47905090565b6000600160003073ffffffffffffffffffffffffffffffffffffffff1673ffffffffffffffffffffffffffffffffffffffff16815260200190815260200160002054905090565b60008054906101000a900473ffffffffffffffffffffffffffffffffffffffff1673ffffffffffffffffffffffffffffffffffffffff163373ffffffffffffffffffffffffffffffffffffffff16146102fb576040517f08c379a00000000000000000000000000000000000000000000000000000000081526004016102f290610899565b60405180910390fd5b600047905060008111610343576040517f08c379a000000000000000000000000000000000000000000000000000000000815260040161033a90610905565b60405180910390fd5b60008060009054906101000a900473ffffffffffffffffffffffffffffffffffffffff1673ffffffffffffffffffffffffffffffffffffffff168260405161038a90610956565b60006040518083038185875af1925050503d80600081146103c7576040519150601f19603f3d011682016040523d82523d6000602084013e6103cc565b606091505b5050905080610410576040517f08c379a0000000000000000000000000000000000000000000000000000000008152600401610407906109b7565b60405180910390fd5b7f8a904c8c85fa231796f243f36a175a566ff158b34bc9572146d834ff18f290758260405161043f919061070e565b60405180910390a15050565b60008054906101000a900473ffffffffffffffffffffffffffffffffffffffff1681565b60016020528060005260406000206000915090505481565b60008054906101000a900473ffffffffffffffffffffffffffffffffffffffff1673ffffffffffffffffffffffffffffffffffffffff163373ffffffffffffffffffffffffffffffffffffffff1614610515576040517f08c379a000000000000000000000000000000000000000000000000000000000815260040161050c90610a23565b60405180910390fd5b80600160003073ffffffffffffffffffffffffffffffffffffffff1673ffffffffffffffffffffffffffffffffffffffff16815260200190815260200160002060008282546105649190610a72565b9250508190555050565b67016345785d8a0000816105829190610ac8565b3410156105c4576040517f08c379a00000000000000000000000000000000000000000000000000000000081526004016105bb90610b94565b60405180910390fd5b80600160003073ffffffffffffffffffffffffffffffffffffffff1673ffffffffffffffffffffffffffffffffffffffff168152602001908152602001600020541015610646576040517f08c379a000000000000000000000000000000000000000000000000000000000815260040161063d90610c26565b60405180910390fd5b80600160003073ffffffffffffffffffffffffffffffffffffffff1673ffffffffffffffffffffffffffffffffffffffff16815260200190815260200160002060008282546106959190610c46565b9250508190555080600160003373ffffffffffffffffffffffffffffffffffffffff1673ffffffffffffffffffffffffffffffffffffffff16815260200190815260200160002060008282546106eb9190610a72565b9250508190555050565b6000819050919050565b610708816106f5565b82525050565b600060208201905061072360008301846106ff565b92915050565b600073ffffffffffffffffffffffffffffffffffffffff82169050919050565b600061075482610729565b9050919050565b61076481610749565b82525050565b600060208201905061077f600083018461075b565b92915050565b600080fd5b61079381610749565b811461079e57600080fd5b50565b6000813590506107b08161078a565b92915050565b6000602082840312156107cc576107cb610785565b5b60006107da848285016107a1565b91505092915050565b6107ec816106f5565b81146107f757600080fd5b50565b600081359050610809816107e3565b92915050565b60006020828403121561082557610824610785565b5b6000610833848285016107fa565b91505092915050565b600082825260208201905092915050565b7f43616c6c6572206973206e6f74206f776e657200000000000000000000000000600082015250565b600061088360138361083c565b915061088e8261084d565b602082019050919050565b600060208201905081810360008301526108b281610876565b9050919050565b7f596f752068617665206e6f20657468657220746f207769746864726177000000600082015250565b60006108ef601d8361083c565b91506108fa826108b9565b602082019050919050565b6000602082019050818103600083015261091e816108e2565b9050919050565b600081905092915050565b50565b6000610940600083610925565b915061094b82610930565b600082019050919050565b600061096182610933565b9150819050919050565b7f5769746864726177206661696c65640000000000000000000000000000000000600082015250565b60006109a1600f8361083c565b91506109ac8261096b565b602082019050919050565b600060208201905081810360008301526109d081610994565b9050919050565b7f4f6e6c7920746865206f776e65722063616e20726573746f636b2e0000000000600082015250565b6000610a0d601b8361083c565b9150610a18826109d7565b602082019050919050565b60006020820190508181036000830152610a3c81610a00565b9050919050565b7f4e487b7100000000000000000000000000000000000000000000000000000000600052601160045260246000fd5b6000610a7d826106f5565b9150610a88836106f5565b9250827fffffffffffffffffffffffffffffffffffffffffffffffffffffffffffffffff03821115610abd57610abc610a43565b5b828201905092915050565b6000610ad3826106f5565b9150610ade836106f5565b9250817fffffffffffffffffffffffffffffffffffffffffffffffffffffffffffffffff0483118215151615610b1757610b16610a43565b5b828202905092915050565b7f596f75206d75737420706179206174206c6561737420302e312045544820706560008201527f7220646f6e757400000000000000000000000000000000000000000000000000602082015250565b6000610b7e60278361083c565b9150610b8982610b22565b604082019050919050565b60006020820190508181036000830152610bad81610b71565b9050919050565b7f4e6f7420656e6f75676820646f6e75747320696e2073746f636b20746f20636f60008201527f6d706c6574652074686973207075726368617365000000000000000000000000602082015250565b6000610c1060348361083c565b9150610c1b82610bb4565b604082019050919050565b60006020820190508181036000830152610c3f81610c03565b9050919050565b6000610c51826106f5565b9150610c5c836106f5565b925082821015610c6f57610c6e610a43565b5b82820390509291505056fea264697066735822122073753339d51f6977c7c49ab28ebb38eae8b81fdc7d497c4d9d32ac2badde600a64736f6c634300080b0033",
  "immutableReferences": {},
  "source": "// SPDX-License-Identifier: MIT\npragma solidity ^0.8.11;\n\ncontract VendingMachine {\n\n    // state variables\n    address public owner;\n    mapping (address => uint) public donutBalances;\n\n// modifier to check if caller is owner\n    modifier onlyOwner() {\n        // If the first argument of 'require' evaluates to 'false', execution terminates and all\n        // changes to the state and to Ether balances are reverted.\n        // This used to consume all gas in old EVM versions, but not anymore.\n        // It is often a good idea to use 'require' to check if functions are called correctly.\n        // As a second argument, you can also provide an explanation about what went wrong.\n        require(msg.sender == owner, \"Caller is not owner\");\n        _;\n    }\n\n    // set the owner as th address that deployed the contract\n    // set the initial vending machine balance to 100\n    constructor() {\n        owner = msg.sender;\n        donutBalances[address(this)] = 100;\n    }\n\n    function getVendingMachineStock() public view returns (uint) {\n        return donutBalances[address(this)];\n    }\n\n    function getVendingMachineValance() public onlyOwner  view returns (uint) {\n        return address(this).balance;\n    }\n\n    // Let the owner restock the vending machine\n    function restock(uint amount) public {\n        require(msg.sender == owner, \"Only the owner can restock.\");\n        donutBalances[address(this)] += amount;\n    }\n\n    // Purchase donuts from the vending machine\n    function purchase(uint amount) public payable {\n        require(msg.value >= amount * 0.1 ether, \"You must pay at least 0.1 ETH per donut\");\n        require(donutBalances[address(this)] >= amount, \"Not enough donuts in stock to complete this purchase\");\n        donutBalances[address(this)] -= amount;\n        donutBalances[msg.sender] += amount;\n    }\n\n    event NewWithdrawl(uint256 amount);\n    // Only owner can retrieve funds\n    function withdrawAll() public onlyOwner {\n\t\tuint256 amount = address(this).balance; // get the amount of ether in the contract\n\t\trequire(amount > 0, 'You have no ether to withdraw');\n\t\t(bool success, ) = owner.call{value: amount}('');\n\t\trequire(success, 'Withdraw failed');\n\t\temit NewWithdrawl(amount);\n\t}\n    \n    \n}",
  "sourcePath": "/home/ion/src/ether/vending-machine/contracts/VendingMachine.sol",
  "compiler": {
    "name": "solc",
    "version": "0.8.11+commit.d7f03943.Emscripten.clang"
  },
  "schemaVersion": "3.4.10",
  "updatedAt": "2022-10-14T19:52:15.374Z",
  "networkType": "ethereum",
  "devdoc": {
    "kind": "dev",
    "methods": {},
    "version": 1
  },
  "userdoc": {
    "kind": "user",
    "methods": {},
    "version": 1
  }
}